{
  "contractName": "AssetManager",
  "abi": [
    {
      "constant": true,
      "inputs": [],
      "name": "tokenReward",
      "outputs": [
        {
          "name": "",
          "type": "address"
        }
      ],
      "payable": false,
      "stateMutability": "view",
      "type": "function"
    },
    {
      "inputs": [
        {
          "name": "tokenAddress",
          "type": "address"
        }
      ],
      "payable": false,
      "stateMutability": "nonpayable",
      "type": "constructor"
    }
  ],
  "bytecode": "0x608060405234801561001057600080fd5b5060405160208061016b83398101806040528101908080519060200190929190505050806000806101000a81548173ffffffffffffffffffffffffffffffffffffffff021916908373ffffffffffffffffffffffffffffffffffffffff1602179055505060e9806100826000396000f300608060405260043610603f576000357c0100000000000000000000000000000000000000000000000000000000900463ffffffff1680636e66f6e9146044575b600080fd5b348015604f57600080fd5b5060566098565b604051808273ffffffffffffffffffffffffffffffffffffffff1673ffffffffffffffffffffffffffffffffffffffff16815260200191505060405180910390f35b6000809054906101000a900473ffffffffffffffffffffffffffffffffffffffff16815600a165627a7a72305820d43b42689e4f75586fd6d900d841e00a2af7b97072936f8db75364a3e05f0d6f0029",
  "source": "pragma solidity ^0.4.18;\r\n\r\nimport \"./Token.sol\";\r\n\r\ncontract AssetManager {\r\n\r\n    Token public tokenReward;\r\n\r\n    constructor(address tokenAddress) public {\r\n        tokenReward = Token(tokenAddress);\r\n    }\r\n}",
  "sourcePath": "C:\\Users\\sonagi623\\Desktop\\git\\digital-asset-liquidation\\server\\truffle\\contracts\\AssetManager.sol",
  "compiler": {
    "name": "solc",
    "version": "0.4.24+commit.e67f0147.Emscripten.clang"
  },
  "schemaVersion": "2.0.0",
  "updatedAt": "2018-07-17T07:20:14.486Z"
}